{
  "contractName": "LifeConnect",
  "abi": [
    {
      "inputs": [
        {
          "internalType": "address",
          "name": "",
          "type": "address"
        }
      ],
      "name": "donors",
      "outputs": [
        {
          "internalType": "string",
          "name": "name",
          "type": "string"
        },
        {
          "internalType": "uint256",
          "name": "age",
          "type": "uint256"
        },
        {
          "internalType": "string",
          "name": "bloodType",
          "type": "string"
        },
        {
          "internalType": "bool",
          "name": "isAvailable",
          "type": "bool"
        },
        {
          "internalType": "address",
          "name": "wallet",
          "type": "address"
        }
      ],
      "stateMutability": "view",
      "type": "function"
    },
    {
      "inputs": [
        {
          "internalType": "address",
          "name": "",
          "type": "address"
        }
      ],
      "name": "recipients",
      "outputs": [
        {
          "internalType": "string",
          "name": "name",
          "type": "string"
        },
        {
          "internalType": "uint256",
          "name": "age",
          "type": "uint256"
        },
        {
          "internalType": "string",
          "name": "bloodType",
          "type": "string"
        },
        {
          "internalType": "address",
          "name": "wallet",
          "type": "address"
        }
      ],
      "stateMutability": "view",
      "type": "function"
    },
    {
      "inputs": [
        {
          "internalType": "string",
          "name": "_name",
          "type": "string"
        },
        {
          "internalType": "uint256",
          "name": "_age",
          "type": "uint256"
        },
        {
          "internalType": "string",
          "name": "_bloodType",
          "type": "string"
        }
      ],
      "name": "registerRecipient",
      "outputs": [],
      "stateMutability": "nonpayable",
      "type": "function"
    },
    {
      "inputs": [
        {
          "internalType": "string",
          "name": "_name",
          "type": "string"
        },
        {
          "internalType": "uint256",
          "name": "_age",
          "type": "uint256"
        },
        {
          "internalType": "string",
          "name": "_bloodType",
          "type": "string"
        },
        {
          "internalType": "bool",
          "name": "_isAvailable",
          "type": "bool"
        }
      ],
      "name": "registerDonor",
      "outputs": [],
      "stateMutability": "nonpayable",
      "type": "function"
    },
    {
      "inputs": [
        {
          "internalType": "address",
          "name": "_addr",
          "type": "address"
        }
      ],
      "name": "getRecipient",
      "outputs": [
        {
          "internalType": "string",
          "name": "",
          "type": "string"
        },
        {
          "internalType": "uint256",
          "name": "",
          "type": "uint256"
        },
        {
          "internalType": "string",
          "name": "",
          "type": "string"
        }
      ],
      "stateMutability": "view",
      "type": "function"
    },
    {
      "inputs": [
        {
          "internalType": "address",
          "name": "_addr",
          "type": "address"
        }
      ],
      "name": "getDonor",
      "outputs": [
        {
          "internalType": "string",
          "name": "",
          "type": "string"
        },
        {
          "internalType": "uint256",
          "name": "",
          "type": "uint256"
        },
        {
          "internalType": "string",
          "name": "",
          "type": "string"
        },
        {
          "internalType": "bool",
          "name": "",
          "type": "bool"
        }
      ],
      "stateMutability": "view",
      "type": "function"
    }
  ],
  "bytecode": "0x608060405234801561000f575f80fd5b5061127a8061001d5f395ff3fe608060405234801561000f575f80fd5b5060043610610060575f3560e01c806362812a391461006457806396c5904314610096578063aeb47838146100c9578063ca0cdea8146100e5578063eb82031214610119578063fcb9cf131461014c575b5f80fd5b61007e60048036038101906100799190610a9d565b610168565b60405161008d93929190610b6a565b60405180910390f35b6100b060048036038101906100ab9190610a9d565b610351565b6040516100c09493929190610bc7565b60405180910390f35b6100e360048036038101906100de9190610d6e565b61055e565b005b6100ff60048036038101906100fa9190610a9d565b610653565b604051610110959493929190610e05565b60405180910390f35b610133600480360381019061012e9190610a9d565b6107bd565b6040516101439493929190610e64565b60405180910390f35b61016660048036038101906101619190610edf565b610913565b005b60605f60605f805f8673ffffffffffffffffffffffffffffffffffffffff1673ffffffffffffffffffffffffffffffffffffffff1681526020019081526020015f206040518060800160405290815f820180546101c490610fa8565b80601f01602080910402602001604051908101604052809291908181526020018280546101f090610fa8565b801561023b5780601f106102125761010080835404028352916020019161023b565b820191905f5260205f20905b81548152906001019060200180831161021e57829003601f168201915b505050505081526020016001820154815260200160028201805461025e90610fa8565b80601f016020809104026020016040519081016040528092919081815260200182805461028a90610fa8565b80156102d55780601f106102ac576101008083540402835291602001916102d5565b820191905f5260205f20905b8154815290600101906020018083116102b857829003601f168201915b50505050508152602001600382015f9054906101000a900473ffffffffffffffffffffffffffffffffffffffff1673ffffffffffffffffffffffffffffffffffffffff1673ffffffffffffffffffffffffffffffffffffffff16815250509050805f015181602001518260400151935093509350509193909250565b60605f60605f8060015f8773ffffffffffffffffffffffffffffffffffffffff1673ffffffffffffffffffffffffffffffffffffffff1681526020019081526020015f206040518060a00160405290815f820180546103af90610fa8565b80601f01602080910402602001604051908101604052809291908181526020018280546103db90610fa8565b80156104265780601f106103fd57610100808354040283529160200191610426565b820191905f5260205f20905b81548152906001019060200180831161040957829003601f168201915b505050505081526020016001820154815260200160028201805461044990610fa8565b80601f016020809104026020016040519081016040528092919081815260200182805461047590610fa8565b80156104c05780601f10610497576101008083540402835291602001916104c0565b820191905f5260205f20905b8154815290600101906020018083116104a357829003601f168201915b50505050508152602001600382015f9054906101000a900460ff161515151581526020016003820160019054906101000a900473ffffffffffffffffffffffffffffffffffffffff1673ffffffffffffffffffffffffffffffffffffffff1673ffffffffffffffffffffffffffffffffffffffff16815250509050805f01518160200151826040015183606001519450945094509450509193509193565b60405180608001604052808481526020018381526020018281526020013373ffffffffffffffffffffffffffffffffffffffff168152505f803373ffffffffffffffffffffffffffffffffffffffff1673ffffffffffffffffffffffffffffffffffffffff1681526020019081526020015f205f820151815f0190816105e49190611175565b506020820151816001015560408201518160020190816106049190611175565b506060820151816003015f6101000a81548173ffffffffffffffffffffffffffffffffffffffff021916908373ffffffffffffffffffffffffffffffffffffffff160217905550905050505050565b6001602052805f5260405f205f91509050805f01805461067290610fa8565b80601f016020809104026020016040519081016040528092919081815260200182805461069e90610fa8565b80156106e95780601f106106c0576101008083540402835291602001916106e9565b820191905f5260205f20905b8154815290600101906020018083116106cc57829003601f168201915b50505050509080600101549080600201805461070490610fa8565b80601f016020809104026020016040519081016040528092919081815260200182805461073090610fa8565b801561077b5780601f106107525761010080835404028352916020019161077b565b820191905f5260205f20905b81548152906001019060200180831161075e57829003601f168201915b505050505090806003015f9054906101000a900460ff16908060030160019054906101000a900473ffffffffffffffffffffffffffffffffffffffff16905085565b5f602052805f5260405f205f91509050805f0180546107db90610fa8565b80601f016020809104026020016040519081016040528092919081815260200182805461080790610fa8565b80156108525780601f1061082957610100808354040283529160200191610852565b820191905f5260205f20905b81548152906001019060200180831161083557829003601f168201915b50505050509080600101549080600201805461086d90610fa8565b80601f016020809104026020016040519081016040528092919081815260200182805461089990610fa8565b80156108e45780601f106108bb576101008083540402835291602001916108e4565b820191905f5260205f20905b8154815290600101906020018083116108c757829003601f168201915b505050505090806003015f9054906101000a900473ffffffffffffffffffffffffffffffffffffffff16905084565b6040518060a0016040528085815260200184815260200183815260200182151581526020013373ffffffffffffffffffffffffffffffffffffffff1681525060015f3373ffffffffffffffffffffffffffffffffffffffff1673ffffffffffffffffffffffffffffffffffffffff1681526020019081526020015f205f820151815f0190816109a29190611175565b506020820151816001015560408201518160020190816109c29190611175565b506060820151816003015f6101000a81548160ff02191690831515021790555060808201518160030160016101000a81548173ffffffffffffffffffffffffffffffffffffffff021916908373ffffffffffffffffffffffffffffffffffffffff16021790555090505050505050565b5f604051905090565b5f80fd5b5f80fd5b5f73ffffffffffffffffffffffffffffffffffffffff82169050919050565b5f610a6c82610a43565b9050919050565b610a7c81610a62565b8114610a86575f80fd5b50565b5f81359050610a9781610a73565b92915050565b5f60208284031215610ab257610ab1610a3b565b5b5f610abf84828501610a89565b91505092915050565b5f81519050919050565b5f82825260208201905092915050565b5f5b83811015610aff578082015181840152602081019050610ae4565b5f8484015250505050565b5f601f19601f8301169050919050565b5f610b2482610ac8565b610b2e8185610ad2565b9350610b3e818560208601610ae2565b610b4781610b0a565b840191505092915050565b5f819050919050565b610b6481610b52565b82525050565b5f6060820190508181035f830152610b828186610b1a565b9050610b916020830185610b5b565b8181036040830152610ba38184610b1a565b9050949350505050565b5f8115159050919050565b610bc181610bad565b82525050565b5f6080820190508181035f830152610bdf8187610b1a565b9050610bee6020830186610b5b565b8181036040830152610c008185610b1a565b9050610c0f6060830184610bb8565b95945050505050565b5f80fd5b5f80fd5b7f4e487b71000000000000000000000000000000000000000000000000000000005f52604160045260245ffd5b610c5682610b0a565b810181811067ffffffffffffffff82111715610c7557610c74610c20565b5b80604052505050565b5f610c87610a32565b9050610c938282610c4d565b919050565b5f67ffffffffffffffff821115610cb257610cb1610c20565b5b610cbb82610b0a565b9050602081019050919050565b828183375f83830152505050565b5f610ce8610ce384610c98565b610c7e565b905082815260208101848484011115610d0457610d03610c1c565b5b610d0f848285610cc8565b509392505050565b5f82601f830112610d2b57610d2a610c18565b5b8135610d3b848260208601610cd6565b91505092915050565b610d4d81610b52565b8114610d57575f80fd5b50565b5f81359050610d6881610d44565b92915050565b5f805f60608486031215610d8557610d84610a3b565b5b5f84013567ffffffffffffffff811115610da257610da1610a3f565b5b610dae86828701610d17565b9350506020610dbf86828701610d5a565b925050604084013567ffffffffffffffff811115610de057610ddf610a3f565b5b610dec86828701610d17565b9150509250925092565b610dff81610a62565b82525050565b5f60a0820190508181035f830152610e1d8188610b1a565b9050610e2c6020830187610b5b565b8181036040830152610e3e8186610b1a565b9050610e4d6060830185610bb8565b610e5a6080830184610df6565b9695505050505050565b5f6080820190508181035f830152610e7c8187610b1a565b9050610e8b6020830186610b5b565b8181036040830152610e9d8185610b1a565b9050610eac6060830184610df6565b95945050505050565b610ebe81610bad565b8114610ec8575f80fd5b50565b5f81359050610ed981610eb5565b92915050565b5f805f8060808587031215610ef757610ef6610a3b565b5b5f85013567ffffffffffffffff811115610f1457610f13610a3f565b5b610f2087828801610d17565b9450506020610f3187828801610d5a565b935050604085013567ffffffffffffffff811115610f5257610f51610a3f565b5b610f5e87828801610d17565b9250506060610f6f87828801610ecb565b91505092959194509250565b7f4e487b71000000000000000000000000000000000000000000000000000000005f52602260045260245ffd5b5f6002820490506001821680610fbf57607f821691505b602082108103610fd257610fd1610f7b565b5b50919050565b5f819050815f5260205f209050919050565b5f6020601f8301049050919050565b5f82821b905092915050565b5f600883026110347fffffffffffffffffffffffffffffffffffffffffffffffffffffffffffffffff82610ff9565b61103e8683610ff9565b95508019841693508086168417925050509392505050565b5f819050919050565b5f61107961107461106f84610b52565b611056565b610b52565b9050919050565b5f819050919050565b6110928361105f565b6110a661109e82611080565b848454611005565b825550505050565b5f90565b6110ba6110ae565b6110c5818484611089565b505050565b5b818110156110e8576110dd5f826110b2565b6001810190506110cb565b5050565b601f82111561112d576110fe81610fd8565b61110784610fea565b81016020851015611116578190505b61112a61112285610fea565b8301826110ca565b50505b505050565b5f82821c905092915050565b5f61114d5f1984600802611132565b1980831691505092915050565b5f611165838361113e565b9150826002028217905092915050565b61117e82610ac8565b67ffffffffffffffff81111561119757611196610c20565b5b6111a18254610fa8565b6111ac8282856110ec565b5f60209050601f8311600181146111dd575f84156111cb578287015190505b6111d5858261115a565b86555061123c565b601f1984166111eb86610fd8565b5f5b82811015611212578489015182556001820191506020850194506020810190506111ed565b8683101561122f578489015161122b601f89168261113e565b8355505b6001600288020188555050505b50505050505056fea264697066735822122027d29ff476ce66b296bae4b0213e2b1c70e1f9a4201bb61e0ddb1a0bb92daf4b64736f6c63430008150033",
  "immutableReferences": {},
  "source": "// SPDX-License-Identifier: MIT\npragma solidity ^0.8.0;\n\ncontract LifeConnect {\n    struct Recipient {\n        string name;\n        uint age;\n        string bloodType;\n        address wallet;\n    }\n\n    struct Donor {\n        string name;\n        uint age;\n        string bloodType;\n        bool isAvailable;\n        address wallet;\n    }\n\n    mapping(address => Recipient) public recipients;\n    mapping(address => Donor) public donors;\n\n    function registerRecipient(string memory _name, uint _age, string memory _bloodType) public {\n        recipients[msg.sender] = Recipient(_name, _age, _bloodType, msg.sender);\n    }\n\n    function registerDonor(string memory _name, uint _age, string memory _bloodType, bool _isAvailable) public {\n        donors[msg.sender] = Donor(_name, _age, _bloodType, _isAvailable, msg.sender);\n    }\n\n    function getRecipient(address _addr) public view returns (string memory, uint, string memory) {\n        Recipient memory r = recipients[_addr];\n        return (r.name, r.age, r.bloodType);\n    }\n\n    function getDonor(address _addr) public view returns (string memory, uint, string memory, bool) {\n        Donor memory d = donors[_addr];\n        return (d.name, d.age, d.bloodType, d.isAvailable);\n    }\n}\n",
  "sourcePath": "/home/vvsa/Blockchain-Based-Organ-Donation-and-Transplantation/lifeconnect/blockchain/contracts/LifeConnect.sol",
  "compiler": {
    "name": "solc",
    "version": "0.8.21+commit.d9974bed.Emscripten.clang"
  },
  "schemaVersion": "3.4.16",
  "updatedAt": "2025-03-25T05:14:08.129Z",
  "devdoc": {
    "kind": "dev",
    "methods": {},
    "version": 1
  },
  "userdoc": {
    "kind": "user",
    "methods": {},
    "version": 1
  }
}